:020000040800F2
:100000000000022085BF0008598500085F850008B0
:10001000658500086B8500087185000800000000F8
:1000200000000000000000000000000077850008CC
:10003000858500080000000093850008A185000860
:10004000D5BF0008D5BF0008D5BF0008D5BF000840
:10005000D5BF0008D5BF0008D5BF0008D5BF000830
:10006000D5BF0008D5BF0008D5BF0008D5BF000820
:10007000D5BF0008D5BF0008D5BF0008D5BF000810
:10008000D5BF0008D5BF0008D5BF0008D5BF000800
:10009000D5BF0008D5BF0008D5BF0008D5BF0008F0
:1000A000D5BF0008D5BF0008D5BF0008D5BF0008E0
:1000B000D5BF0008D5BF0008D5BF0008D5BF0008D0
:1000C000D5BF0008D5BF0008D5BF0008D5BF0008C0
:1000D000D5BF0008D5BF0008D5BF0008D5BF0008B0
:1000E000D5BF0008D5BF0008D5BF0008D5BF0008A0
:1000F000D5BF0008D5BF0008D5BF0008D5BF000890
:10010000D5BF0008D5BF0008D5BF0008D5BF00087F
:10011000AD850008D5BF0008D5BF0008D5BF0008D1
:10012000D5BF0008D5BF0008D5BF0008D5BF00085F
:10013000D5BF0008D5BF0008D5BF0008D5BF00084F
:10014000D5BF0008D5BF0008D5BF0008D5BF00083F
:10015000D5BF0008D5BF0008D5BF0008D5BF00082F
:10016000D5BF0008D5BF0008D5BF0008D5BF00081F
:10017000D5BF0008D5BF0008D5BF000800000000AB
:08018000D5BF0008D5BF00083F
:1001900010B5054C237833B9044B13B10448AFF3C1
:1001A00000800123237010BD7003002000000000B8
:1001B00008F1020808B5034B1BB103490348AFF32C
:1001C000008008BD000000007403002008F1020850
:1001D00001F0FF01102A2BDB10F0070F08D010F8F8
:1001E000013B013A8B422DD010F0070F42B3F6D1FC
:1001F000F0B441EA012141EA014122F007047FF015
:1002000000070023F0E80256083C85EA010586EA6B
:10021000010685FA47F5A3FA87F586FA47F6A5FAA7
:1002200087F68EB9EED1F0BC01F0FF0102F00702B3
:1002300032B110F8013B013A83EA010313B1F8D15E
:100240000020704701387047002D06BF354603383F
:10025000073815F0010F07D1013015F4807F02BF78
:10026000013015F4C03F0130F0BC0138704700BFC9
:1002700010F8012B11F8013B012A28BF9A42F7D050
:10028000D01A7047034613F8012B002AFBD1181A25
:100290000138704781F0004102E000BF83F0004365
:1002A00030B54FEA41044FEA430594EA050F08BF11
:1002B00090EA020F1FBF54EA000C55EA020C7FEAD5
:1002C000645C7FEA655C00F0E2804FEA5454D4EB52
:1002D0005555B8BF6D420CDD2C4480EA020281EA1C
:1002E000030382EA000083EA010180EA020281EA54
:1002F0000303362D88BF30BD11F0004F4FEA0131A6
:100300004FF4801C4CEA113102D0404261EB4101B4
:1003100013F0004F4FEA03334CEA133302D052423A
:1003200063EB430394EA050F00F0A780A4F10104F6
:10033000D5F1200E0DDB02FA0EFC22FA05F2801830
:1003400041F1000103FA0EF2801843FA05F3594116
:100350000EE0A5F120050EF1200E012A03FA0EFC95
:1003600028BF4CF0020C43FA05F3C01851EBE371BF
:1003700001F0004507D54FF0000EDCF1000C7EEBDC
:1003800000006EEB0101B1F5801F1BD3B1F5001F1A
:100390000CD349085FEA30004FEA3C0C04F1010439
:1003A0004FEA445212F5800F80F09A80BCF1004F62
:1003B00008BF5FEA500C50F1000041EB045141EAE4
:1003C000050130BD5FEA4C0C404141EB0101013CAD
:1003D00028BFB1F5801FE9D291F0000F04BF01469C
:1003E0000020B1FA81F308BF2033A3F10B03B3F16E
:1003F00020020CDA0C3208DD02F1140CC2F10C02FE
:1004000001FA0CF021FA02F10CE002F11402D8BF5B
:10041000C2F1200C01FA02F120FA0CFCDCBF41EA27
:100420000C019040E41AA2BF01EB0451294330BDF6
:100430006FEA04041F3C1CDA0C340EDC04F11404D3
:10044000C4F1200220FA04F001FA02F340EA0300AA
:1004500021FA04F345EA030130BDC4F10C04C4F1F0
:10046000200220FA02F001FA04F340EA03002946D0
:1004700030BD21FA04F0294630BD94F0000F83F41A
:10048000801306BF81F480110134013D4EE77FEAFD
:10049000645C18BF7FEA655C29D094EA050F08BF49
:1004A00090EA020F05D054EA000C04BF194610462A
:1004B00030BD91EA030F1EBF0021002030BD5FEA6E
:1004C000545C05D14000494128BF41F0004130BD96
:1004D00014F580043CBF01F5801130BD01F00045EA
:1004E00045F0FE4141F470014FF0000030BD7FEA5D
:1004F000645C1ABF194610467FEA655C1CBF0B4658
:10050000024650EA013406BF52EA033591EA030F6E
:1005100041F4002130BD00BF90F0000F04BF002166
:10052000704730B54FF4806404F132044FF0000599
:100530004FF0000150E700BF90F0000F04BF002112
:10054000704730B54FF4806404F1320410F0004578
:1005500048BF40424FF000013EE700BF42004FEA73
:10056000E2014FEA31014FEA02701FBF12F07F43F0
:1005700093F07F4F81F06051704732F07F4208BFA7
:10058000704793F07F4F04BF41F40021704730B5AE
:100590004FF4607401F0004521F000411CE700BFFA
:1005A00050EA010208BF704730B54FF000050AE07D
:1005B00050EA010208BF704730B511F0004502D57E
:1005C000404261EB41014FF4806404F132045FEA80
:1005D000915C3FF4D8AE4FF003025FEADC0C18BF29
:1005E00003325FEADC0C18BF033202EBDC02C2F11B
:1005F000200300FA03FC20FA02F001FA03FE40EAAD
:100600000E0021FA02F11444BDE600BF70B54FF0B0
:10061000FF0C4CF4E06C1CEA11541DBF1CEA13558E
:1006200094EA0C0F95EA0C0F00F0DEF82C4481EAF6
:10063000030621EA4C5123EA4C5350EA013518BF16
:1006400052EA033541F4801143F4801338D0A0FB03
:1006500002CE4FF00005E1FB02E506F00042E0FBB0
:1006600003E54FF00006E1FB03569CF0000F18BFB6
:100670004EF0010EA4F1FF04B6F5007F64F540745E
:1006800004D25FEA4E0E6D4146EB060642EAC621F1
:1006900041EA55514FEAC52040EA5E504FEACE2E5E
:1006A000B4F1FD0C88BFBCF5E06F1ED8BEF1004F61
:1006B00008BF5FEA500E50F1000041EB045170BDDD
:1006C00006F0004646EA010140EA020081EA030121
:1006D000B4EB5C04C2BFD4EB0C0541EA045170BD1D
:1006E00041F480114FF0000E013C00F3AB8014F197
:1006F000360FDEBF002001F0004170BDC4F10004E0
:10070000203C35DA0C341BDC04F11404C4F1200560
:1007100000FA05F320FA04F001FA05F240EA0200BB
:1007200001F0004221F0004110EBD37021FA04F6F1
:1007300042EB06015EEA430E08BF20EAD37070BDAB
:10074000C4F10C04C4F1200500FA04F320FA05F00A
:1007500001FA04F240EA020001F0004110EBD3700C
:1007600041F100015EEA430E08BF20EAD37070BD7C
:10077000C4F1200500FA05F24EEA020E20FA04F355
:1007800001FA05F243EA020321FA04F001F0004104
:1007900021FA04F220EA020000EBD3705EEA430E75
:1007A00008BF20EAD37070BD94F0000F0FD101F0A4
:1007B0000046400041EB010111F4801F08BF013CDD
:1007C000F7D041EA060195F0000F18BF704703F01B
:1007D0000046520043EB030313F4801F08BF013DA2
:1007E000F7D043EA0603704794EA0C0F0CEA13555E
:1007F00018BF95EA0C0F0CD050EA410618BF52EA18
:100800004306D1D181EA030101F000414FF000001D
:1008100070BD50EA410606BF1046194652EA43062B
:1008200019D094EA0C0F02D150EA013613D195EA9F
:100830000C0F05D152EA03361CBF104619460AD1E7
:1008400081EA030101F0004141F0FE4141F47001F1
:100850004FF0000070BD41F0FE4141F4780170BDE1
:1008600070B54FF0FF0C4CF4E06C1CEA11541DBF46
:100870001CEA135594EA0C0F95EA0C0F00F0A7F848
:10088000A4EB050481EA030E52EA03354FEA013175
:1008900000F088804FEA03334FF0805545EA131388
:1008A00043EA12634FEA022245EA111545EA106550
:1008B0004FEA00260EF000419D4208BF964244F1E7
:1008C000FD0404F5407402D25B084FEA3202B61A06
:1008D00065EB03055B084FEA32024FF480104FF4DA
:1008E000002CB6EB020E75EB030E22BFB61A75464E
:1008F00040EA0C005B084FEA3202B6EB020E75EBE1
:10090000030E22BFB61A754640EA5C005B084FEA48
:100910003202B6EB020E75EB030E22BFB61A754615
:1009200040EA9C005B084FEA3202B6EB020E75EB20
:10093000030E22BFB61A754640EADC0055EA060EE1
:1009400018D04FEA051545EA16754FEA06164FEA24
:10095000C30343EA52734FEAC2025FEA1C1CC0D1D0
:1009600011F4801F0BD141EA00014FF000004FF05D
:10097000004CB6E711F4801F04BF01430020B4F11E
:10098000FD0C88BFBCF5E06F3FF6AFAEB5EB030CD6
:1009900004BFB6EB020C5FEA500C50F1000041EBD3
:1009A000045170BD0EF0004E4EEA113114EB5C04A0
:1009B000C2BFD4EB0C0541EA045170BD41F4801173
:1009C0004FF0000E013C90E645EA060E8DE60CEA7B
:1009D000135594EA0C0F08BF95EA0C0F3FF43BAF98
:1009E00094EA0C0F0AD150EA01347FF434AF95EA4F
:1009F0000C0F7FF425AF104619462CE795EA0C0F33
:100A000006D152EA03353FF4FDAE1046194622E7FF
:100A100050EA410618BF52EA43067FF4C5AE50EAD9
:100A200041047FF40DAF52EA43057FF4EBAE12E7C9
:100A30004FF0FF3C06E000BF4FF0010C02E000BFAA
:100A40004FF0010C4DF804CD4FEA410C7FEA6C5C8D
:100A50004FEA430C18BF7FEA6C5C1BD001B050EA30
:100A6000410C0CBF52EA430C91EA030F02BF90EA1B
:100A7000020F0020704710F1000F91EA030F58BFDA
:100A8000994208BF90422CBFD8176FEAE37040F03C
:100A9000010070474FEA410C7FEA6C5C02D150EADA
:100AA000013C07D14FEA430C7FEA6C5CD6D152EA95
:100AB000033CD3D05DF8040B704700BF844610465A
:100AC00062468C461946634600E000BF01B5FFF759
:100AD000B7FF002848BF10F1000F01BD4DF808ED29
:100AE000FFF7F4FF0CBF012000205DF808FB00BFFA
:100AF0004DF808EDFFF7EAFF34BF012000205DF854
:100B000008FB00BF4DF808EDFFF7E0FF94BF0120A0
:100B100000205DF808FB00BF4DF808EDFFF7CEFFA1
:100B200094BF012000205DF808FB00BF4DF808EDE0
:100B3000FFF7C4FF34BF012000205DF808FB00BFB1
:100B40004FEA410C7FEA6C5C02D150EA013C0AD1C9
:100B50004FEA430C7FEA6C5C02D152EA033C02D1BB
:100B60004FF0000070474FF0010070474FEA41021C
:100B700012F5001215D211D56FF47873B3EB6252EF
:100B800012D94FEAC12343F0004343EA505311F016
:100B9000004F23FA02F018BF404270474FF00000A8
:100BA000704750EA013005D111F0004008BF6FF0E6
:100BB000004070474FF00000704700BF4A0011D25C
:100BC00012F5001211D20DD56FF47873B3EB6252A7
:100BD0000ED44FEAC12343F0004343EA505323FAB3
:100BE00002F070474FF00000704750EA013002D128
:100BF0004FF0FF3070474FF0000070474FEA41025E
:100C0000B2F1E04324BFB3F5001CDCF1FE5C0DD96A
:100C100001F0004C4FEAC0024CEA5070B2F1004FB4
:100C200040EB830008BF20F00100704711F0804FB7
:100C300021D113F13872BCBF01F00040704741F47C
:100C400080114FEA5252C2F11802C2F1200C10FA80
:100C50000CF320FA02F018BF40F001004FEAC12364
:100C60004FEAD32303FA0CFC40EA0C0023FA02F308
:100C70004FEA4303CCE77FEA625307D150EA0133DE
:100C80001EBF4FF0FE4040F44000704701F00040AE
:100C900040F0FE4040F40000704700BF53B94AB92D
:100CA000002908BF00281CBF4FF0FF314FF0FF3074
:100CB00000F0A4B9ADF1080C6DE904CE00F03CF8E9
:100CC000DDF804E0DDE9022304B0704738B5002206
:100CD000002304460D46FFF70BFF28B9204629469E
:100CE000BDE8384000F00AB8204605F1004100F0A8
:100CF00005F8404261EB410138BD00BFD0B50C4B57
:100D0000002206460F46FFF781FCFFF757FF044617
:100D1000FFF702FC074B0022FFF778FC02460B4668
:100D200030463946FFF7BAFAFFF748FF2146D0BDF3
:100D30000000F03D0000F0412DE9F047089D044619
:100D40008C46002B40F083808A42174647D9B2FA7E
:100D500082F242B1C2F1200024FA00F091409740A3
:100D600040EA010C94404FEA1748230CBCFBF8F60C
:100D70001FFA87FE08FB16C143EA014306FB0EF18A
:100D8000994209D9FB1806F1FF3080F01981994288
:100D900040F21681023E3B445B1AA4B2B3FBF8F06A
:100DA00008FB103344EA034400FB0EFEA64509D9B4
:100DB0003C1900F1FF3380F00581A64540F2028125
:100DC00002383C4440EA0640A4EB0E0400261DB164
:100DD000D4400023C5E900433146BDE8F08702B99D
:100DE000FFDEB2FA82F2002A50D1CB1B4FEA174E37
:100DF0001FFA87F80126B3FBFEFC210C0EFB1C3307
:100E000041EA034108FB0CF38B4207D979180CF136
:100E1000FF3002D28B4200F2E9808446C91AA3B2A5
:100E2000B1FBFEF00EFB101143EA014408FB00F891
:100E3000A04507D93C1900F1FF3302D2A04500F2CA
:100E4000D9801846A4EB080440EA0C40BFE78B4267
:100E500009D9002D00F0B1800026C5E90001304617
:100E60003146BDE8F087B3FA83F6002E4AD18B42B3
:100E700002D3824200F2B880841A61EB03010120A0
:100E80008C46002DA8D0C5E9004CA5E7C2F120038F
:100E900020FA03F6974001FA02F04FEA174ED940C4
:100EA0003043030CB1FBFEF61FFA87F80EFB161158
:100EB00043EA014306FB08F1994204FA02F409D916
:100EC000FB1806F1FF3C80F08D80994240F28A8049
:100ED000023E3B445B1A81B2B3FBFEF00EFB1033C3
:100EE00041EA034100FB08F38B4207D9791800F16E
:100EF000FF3C73D28B4271D902383944CB1A40EA95
:100F0000064678E7C6F1200C03FA06F422FA0CF341
:100F10001C4320FA0CF701FA06F34FEA144E21FAAB
:100F20000CF11F433B0CB1FBFEF91FFA84F80EFBDA
:100F3000191143EA014109FB08FA8A4502FA06F24F
:100F400000FA06F308D9611809F1FF3048D28A4542
:100F500046D9A9F102092144A1EB0A01BFB2B1FBB4
:100F6000FEF00EFB101147EA014700FB08F8B845F8
:100F700007D9E71900F1FF312ED2B8452CD9023834
:100F8000274440EA0940A7EB0807A0FB02894F4528
:100F9000C64649461AD317D05DB1B3EB0E0267EBD4
:100FA000010707FA0CFCF2404CEA0202F740C5E9DF
:100FB000002700263146BDE8F0872E4628460BE77D
:100FC0000646E9E61846FDE64345E5D2B8EB020ED3
:100FD00069EB04010138DFE70846D2E760468DE798
:100FE0008146B9E7664675E730464AE7ACF1020C40
:100FF000394413E702383C4424E700BF704700BF80
:1010000080B400AFBFF34F8F00BF064BDB6803F423
:10101000E0620449044B1343CB60BFF34F8F00BF22
:1010200000BFFDE700ED00E00400FA0580B483B0E6
:1010300000AF87ED000B3A68796821F0004343EC7C
:10104000172BB0EE470AF0EE670A0C37BD465DF885
:10105000047B704780B483B000AF87ED010AD7ED01
:10106000017AF0EEE77AB0EE670A0C37BD465DF81C
:10107000047B704780B582B000AF87ED010AC7EDF1
:10108000000AD7ED000A97ED010A24F0B1FBF0EE5B
:10109000407AB0EE670A0837BD4680BD80B582B0A1
:1010A00000AF87ED010A97ED010A24F06BFAF0EE2C
:1010B000407AB0EE670A0837BD4680BD80B582B081
:1010C00000AF87ED010A97ED010A24F09DFAF0EEDA
:1010D000407AB0EE670A0837BD4680BD80B582B061
:1010E00000AF87ED010A97ED010A24F0CDFAF0EE8A
:1010F000407AB0EE670A0837BD4680BD80B582B041
:1011000000AF87ED010A97ED010A24F073FBF0EEC2
:10111000407AB0EE670A0837BD4680BD80B483B020
:1011200000AF78607B684FF000021A607B684FF078
:1011300000025A607B684FF000029A607B68184694
:101140000C37BD465DF8047B704780B485B000AFB6
:10115000F86087ED020AC7ED010A87ED001AFB6807
:10116000BA681A60FB687A685A60FB683A689A60E5
:10117000FB6818461437BD465DF8047B70470000D5
:1011800080B58CB000AF7861396107F118039FED2D
:10119000201ADFED1F0A9FED1E0A1846FFF7D5FF44
:1011A0003B6993ED007A7B69D3ED007A77EE277A7D
:1011B000C7ED067A3B6993ED017A7B69D3ED017A3D
:1011C00077EE277AC7ED077A3B6993ED027A7B6960
:1011D000D3ED027A77EE277AC7ED087A07F1240378
:1011E00007F1180207CA83E80700796ABA6AFB6A3E
:1011F00006EE901A07EE102A07EE903AB0EE660A55
:10120000F0EE470AB0EE671A3037BD4680BD00BF2A
:101210000000000080B58CB000AF7861396107F143
:1012200018031846FFF77AFF7B6993ED007A3B6954
:10123000D3ED007A77EE677AC7ED067A7B6993ED96
:10124000017A3B69D3ED017A77EE677AC7ED077AC9
:101250007B6993ED027A3B69D3ED027A77EE677A88
:10126000C7ED087A07F1240307F1180207CA83E8DB
:101270000700796ABA6AFB6A06EE901A07EE102A2E
:1012800007EE903AB0EE660AF0EE470AB0EE671A43
:101290003037BD4680BD80B487B000AF786187ED40
:1012A000040AC7ED030A87ED021AC7ED011A7B692C
:1012B0003A691A607B69FA685A607B69BA689A6011
:1012C0007B697A68DA607B6918461C37BD465DF831
:1012D000047B704780B483B000AF78607B684FF0C8
:1012E00000021A607B684FF000025A607B684FF082
:1012F00000029A607B684FF00002DA607B68184653
:101300000C37BD465DF8047B7047000080B58EB099
:1013100000AFF860F0EE406AB0EE607AF0EE417A2D
:10132000C7ED006A87ED017AC7ED027A644B7B63F3
:10133000D7ED007A97ED0D7A67EE277AC7ED0C7A34
:10134000D7ED017A97ED0D7A67EE277AC7ED0B7A24
:10135000D7ED027A97ED0D7A67EE277AC7ED0A7A14
:10136000D7ED0A7AB6EE007A67EE877AB0EE670AB2
:10137000FFF7A4FE87ED090AD7ED0A7AB6EE007AE8
:1013800067EE877AB0EE670AFFF7A8FE87ED080AD6
:10139000D7ED0C7AB6EE007A67EE877AB0EE670A80
:1013A000FFF78CFE87ED070AD7ED0C7AB6EE007AD0
:1013B00067EE877AB0EE670AFFF790FE87ED060AC0
:1013C000D7ED0B7AB6EE007A67EE877AB0EE670A51
:1013D000FFF774FE87ED050AD7ED0B7AB6EE007ABB
:1013E00067EE877AB0EE670AFFF778FE87ED040AAA
:1013F00097ED057AD7ED077A27EE277AD7ED097AA8
:1014000027EE277AD7ED046AD7ED067A66EEA76A4B
:10141000D7ED087A66EEA77A77EE277AFB68C3EDF8
:10142000037A97ED057AD7ED067A27EE277AD7ED7E
:10143000097A27EE277AD7ED046AD7ED077A66EEA8
:10144000A76AD7ED087A66EEA77A77EE277AFB6867
:10145000C3ED007A97ED047AD7ED077A27EE277A65
:10146000D7ED097A27EE277AD7ED056AD7ED067A08
:1014700066EEA76AD7ED087A66EEA77A77EE677A06
:10148000FB68C3ED017A97ED057AD7ED077A27EE71
:10149000277AD7ED087A27EE277AD7ED046AD7EDB9
:1014A000067A66EEA76AD7ED097A66EEA77A77EE36
:1014B000677AFB68C3ED027A00BF3837BD4680BD4E
:1014C00035FA8E3C80B483B000AF78607B684FF013
:1014D00000021A607B684FF000025A607B684FF090
:1014E00000029A607B684FF00002DA607B684FF080
:1014F00000021A617B684FF000025A617B684FF06E
:1015000000029A617B684FF00002DA617B684FF05D
:1015100000021A627B684FF000025A627B684FF04B
:1015200000029A627B684FF00002DA627B684FF03B
:1015300000021A637B684FF000025A637B684FF029
:1015400000029A637B684FF07E52DA637B6818462C
:101550000C37BD465DF8047B704780B487B000AFA0
:101560007861B0EE406AF0EE606AB0EE417AF0EE7B
:10157000617A87ED016AC7ED026A87ED037AC7EDEC
:10158000047AD7ED027A37EEA77AD7ED027A67EEC2
:10159000277AB7EE007A37EE677AD7ED037A77EEDF
:1015A000A76AD7ED037A66EEA77A77EE677A7B694A
:1015B000C3ED007AD7ED017A37EEA77AD7ED027A3C
:1015C00027EE277AD7ED037A77EEA76AD7ED047A6C
:1015D00066EEA77A77EE677A7B69C3ED017AD7ED7D
:1015E000017A37EEA77AD7ED037A27EE277AD7ED7F
:1015F000027A77EEA76AD7ED047A66EEA77A77EEDD
:10160000277A7B69C3ED027A7B694FF00002DA60CA
:10161000D7ED017A37EEA77AD7ED027A27EE277A4F
:10162000D7ED037A77EEA76AD7ED047A66EEA77A4C
:1016300077EE277A7B69C3ED047AD7ED017A37EE2E
:10164000A77AD7ED017A67EE277AB7EE007A37EE00
:10165000677AD7ED037A77EEA76AD7ED037A66EE5D
:10166000A77A77EE677A7B69C3ED057AD7ED027AC0
:1016700037EEA77AD7ED037A27EE277AD7ED017AEE
:1016800077EEA76AD7ED047A66EEA77A77EE677AE7
:101690007B69C3ED067A7B694FF00002DA61D7ED12
:1016A000017A37EEA77AD7ED037A27EE277AD7EDBE
:1016B000027A77EEA76AD7ED047A66EEA77A77EE1C
:1016C000677A7B69C3ED087AD7ED027A37EEA77A9D
:1016D000D7ED037A27EE277AD7ED017A77EEA76A5E
:1016E000D7ED047A66EEA77A77EE277A7B69C3EDA9
:1016F000097AD7ED017A37EEA77AD7ED017A67EE4E
:10170000277AB7EE007A37EE677AD7ED027A77EE6E
:10171000A76AD7ED027A66EEA77A77EE677A7B69D9
:10172000C3ED0A7A7B694FF00002DA6200BF1C3712
:10173000BD465DF8047B704780B495B000AF78601B
:101740007B6893ED037A7B68D3ED067A27EE277AE0
:101750007B68D3ED097A27EE277A7B68D3ED0C7A84
:1017600027EE277A7B68D3ED026A7B68D3ED077A90
:1017700066EEA76A7B68D3ED097A66EEA76A7B6896
:10178000D3ED0C7A66EEA77A37EE677A7B68D3EDF5
:10179000036A7B68D3ED057A66EEA76A7B68D3EDB2
:1017A0000A7A66EEA76A7B68D3ED0C7A66EEA77AB2
:1017B00037EE677A7B68D3ED016A7B68D3ED077AF1
:1017C00066EEA76A7B68D3ED0A7A66EEA76A7B6845
:1017D000D3ED0C7A66EEA77A37EE277A7B68D3EDE5
:1017E000026A7B68D3ED057A66EEA76A7B68D3ED63
:1017F0000B7A66EEA76A7B68D3ED0C7A66EEA77A61
:1018000037EE277A7B68D3ED016A7B68D3ED067AE1
:1018100066EEA76A7B68D3ED0B7A66EEA76A7B68F3
:10182000D3ED0C7A66EEA77A37EE677A7B68D3ED54
:10183000036A7B68D3ED067A66EEA76A7B68D3ED10
:10184000087A66EEA76A7B68D3ED0D7A66EEA77A12
:1018500037EE677A7B68D3ED026A7B68D3ED077A4F
:1018600066EEA76A7B68D3ED087A66EEA76A7B68A6
:10187000D3ED0D7A66EEA77A37EE277A7B68D3ED43
:10188000036A7B68D3ED047A66EEA76A7B68D3EDC2
:101890000A7A66EEA76A7B68D3ED0D7A66EEA77AC0
:1018A00037EE277A7B68D3ED006A7B68D3ED077A41
:1018B00066EEA76A7B68D3ED0A7A66EEA76A7B6854
:1018C000D3ED0D7A66EEA77A37EE677A7B68D3EDB3
:1018D000026A7B68D3ED047A66EEA76A7B68D3ED73
:1018E0000B7A66EEA76A7B68D3ED0D7A66EEA77A6F
:1018F00037EE677A7B68D3ED006A7B68D3ED067AB2
:1019000066EEA76A7B68D3ED0B7A66EEA76A7B6802
:10191000D3ED0D7A66EEA77A37EE277A7B68D3EDA2
:10192000036A7B68D3ED057A66EEA76A7B68D3ED20
:10193000087A66EEA76A7B68D3ED0E7A66EEA77A20
:1019400037EE277A7B68D3ED016A7B68D3ED077A9F
:1019500066EEA76A7B68D3ED087A66EEA76A7B68B5
:10196000D3ED0E7A66EEA77A37EE677A7B68D3ED11
:10197000036A7B68D3ED047A66EEA76A7B68D3EDD1
:10198000097A66EEA76A7B68D3ED0E7A66EEA77ACF
:1019900037EE677A7B68D3ED006A7B68D3ED077A10
:1019A00066EEA76A7B68D3ED097A66EEA76A7B6864
:1019B000D3ED0E7A66EEA77A37EE277A7B68D3ED01
:1019C000016A7B68D3ED047A66EEA76A7B68D3ED83
:1019D0000B7A66EEA76A7B68D3ED0E7A66EEA77A7D
:1019E00037EE277A7B68D3ED006A7B68D3ED057A02
:1019F00066EEA76A7B68D3ED0B7A66EEA76A7B6812
:101A0000D3ED0E7A66EEA77A37EE677A7B68D3ED70
:101A1000026A7B68D3ED057A66EEA76A7B68D3ED30
:101A2000087A66EEA76A7B68D3ED0F7A66EEA77A2E
:101A300037EE677A7B68D3ED016A7B68D3ED067A6F
:101A400066EEA76A7B68D3ED087A66EEA76A7B68C4
:101A5000D3ED0F7A66EEA77A37EE277A7B68D3ED5F
:101A6000026A7B68D3ED047A66EEA76A7B68D3EDE1
:101A7000097A66EEA76A7B68D3ED0F7A66EEA77ADD
:101A800037EE277A7B68D3ED006A7B68D3ED067A60
:101A900066EEA76A7B68D3ED097A66EEA76A7B6873
:101AA000D3ED0F7A66EEA77A37EE677A7B68D3EDCF
:101AB000016A7B68D3ED047A66EEA76A7B68D3ED92
:101AC0000A7A66EEA76A7B68D3ED0F7A66EEA77A8C
:101AD00037EE677A7B68D3ED006A7B68D3ED057AD1
:101AE00066EEA76A7B68D3ED0A7A66EEA76A7B6822
:101AF000D3ED0F7A66EEA77A77EE277AC7ED137AE1
:101B0000F7EE006A97ED137AC6EE877AC7ED137A7F
:101B10007B6893ED067A7B68D3ED0B7A27EE277A04
:101B20007B68D3ED0D7A27EE277A7B68D3ED076AC1
:101B30007B68D3ED0A7A66EEA76A7B68D3ED0D7AEF
:101B400066EEA77A37EE677A7B68D3ED076A7B6823
:101B5000D3ED097A66EEA76A7B68D3ED0E7A66EE5E
:101B6000A77A37EE277A7B68D3ED056A7B68D3EDD9
:101B70000B7A66EEA76A7B68D3ED0E7A66EEA77ADB
:101B800037EE677A7B68D3ED066A7B68D3ED097A16
:101B900066EEA76A7B68D3ED0F7A66EEA77A37EE1A
:101BA000677A7B68D3ED056A7B68D3ED0A7A66EEC7
:101BB000A76A7B68D3ED0F7A66EEA77A77EE277A6D
:101BC00097ED137A67EE277AC7ED127A7B6893ED6B
:101BD000037A7B68D3ED0A7A27EE277A7B68D3ED08
:101BE0000D7A27EE277A7B68D3ED026A7B68D3ED06
:101BF0000B7A66EEA76A7B68D3ED0D7A66EEA77A5C
:101C000037EE677A7B68D3ED036A7B68D3ED097A98
:101C100066EEA76A7B68D3ED0E7A66EEA77A37EE9A
:101C2000677A7B68D3ED016A7B68D3ED0B7A66EE49
:101C3000A76A7B68D3ED0E7A66EEA77A37EE277A2D
:101C40007B68D3ED026A7B68D3ED097A66EEA76AFA
:101C50007B68D3ED0F7A66EEA77A37EE277A7B683A
:101C6000D3ED016A7B68D3ED0A7A66EEA76A7B68DA
:101C7000D3ED0F7A66EEA77A77EE677A97ED137A4F
:101C800067EE277AC7ED117A7B6893ED027A7B685D
:101C9000D3ED077A27EE277A7B68D3ED0D7A27EE0E
:101CA000277A7B68D3ED036A7B68D3ED067A66EE0C
:101CB000A76A7B68D3ED0D7A66EEA77A37EE677A6E
:101CC0007B68D3ED036A7B68D3ED057A66EEA76A7D
:101CD0007B68D3ED0E7A66EEA77A37EE277A7B68BB
:101CE000D3ED016A7B68D3ED077A66EEA76A7B685D
:101CF000D3ED0E7A66EEA77A37EE677A7B68D3ED7E
:101D0000026A7B68D3ED057A66EEA76A7B68D3ED3D
:101D10000F7A66EEA77A37EE677A7B68D3ED016AB1
:101D20007B68D3ED067A66EEA76A7B68D3ED0F7AFF
:101D300066EEA77A77EE277A97ED137A67EE277A21
:101D4000C7ED107A7B6893ED037A7B68D3ED067A52
:101D500027EE277A7B68D3ED097A27EE277A7B680E
:101D6000D3ED026A7B68D3ED077A66EEA76A7B68DB
:101D7000D3ED097A66EEA77A37EE677A7B68D3ED02
:101D8000036A7B68D3ED057A66EEA76A7B68D3EDBC
:101D90000A7A66EEA77A37EE677A7B68D3ED016A36
:101DA0007B68D3ED077A66EEA76A7B68D3ED0A7A83
:101DB00066EEA77A37EE277A7B68D3ED026A7B68F6
:101DC000D3ED057A66EEA76A7B68D3ED0B7A66EEF3
:101DD000A77A37EE277A7B68D3ED016A7B68D3ED6B
:101DE000067A66EEA76A7B68D3ED0B7A66EEA77A71
:101DF00077EE677A97ED137A67EE277AC7ED0F7A59
:101E00007B6893ED077A7B68D3ED0A7A27EE277A11
:101E10007B68D3ED0C7A27EE277A7B68D3ED066AD0
:101E20007B68D3ED0B7A66EEA76A7B68D3ED0C7AFC
:101E300066EEA77A37EE677A7B68D3ED076A7B6830
:101E4000D3ED087A66EEA76A7B68D3ED0E7A66EE6C
:101E5000A77A37EE677A7B68D3ED046A7B68D3EDA7
:101E60000B7A66EEA76A7B68D3ED0E7A66EEA77AE8
:101E700037EE277A7B68D3ED066A7B68D3ED087A64
:101E800066EEA76A7B68D3ED0F7A66EEA77A37EE27
:101E9000277A7B68D3ED046A7B68D3ED0A7A66EE15
:101EA000A76A7B68D3ED0F7A66EEA77A77EE677A3A
:101EB00097ED137A67EE277AC7ED0E7A7B6893ED7C
:101EC000027A7B68D3ED0B7A27EE277A7B68D3ED15
:101ED0000C7A27EE277A7B68D3ED036A7B68D3ED13
:101EE0000A7A66EEA76A7B68D3ED0C7A66EEA77A6B
:101EF00037EE677A7B68D3ED036A7B68D3ED087AA7
:101F000066EEA76A7B68D3ED0E7A66EEA77A37EEA7
:101F1000277A7B68D3ED006A7B68D3ED0B7A66EE97
:101F2000A76A7B68D3ED0E7A66EEA77A37EE677AFA
:101F30007B68D3ED026A7B68D3ED087A66EEA76A08
:101F40007B68D3ED0F7A66EEA77A37EE677A7B6807
:101F5000D3ED006A7B68D3ED0A7A66EEA76A7B68E8
:101F6000D3ED0F7A66EEA77A77EE277A97ED137A9C
:101F700067EE277AC7ED0D7A7B6893ED037A7B686D
:101F8000D3ED067A27EE277A7B68D3ED0C7A27EE1D
:101F9000277A7B68D3ED026A7B68D3ED077A66EE19
:101FA000A76A7B68D3ED0C7A66EEA77A37EE677A7C
:101FB0007B68D3ED036A7B68D3ED047A66EEA76A8B
:101FC0007B68D3ED0E7A66EEA77A37EE677A7B6888
:101FD000D3ED006A7B68D3ED077A66EEA76A7B686B
:101FE000D3ED0E7A66EEA77A37EE277A7B68D3EDCB
:101FF000026A7B68D3ED047A66EEA76A7B68D3ED4C
:102000000F7A66EEA77A37EE277A7B68D3ED006AFF
:102010007B68D3ED067A66EEA76A7B68D3ED0F7A0C
:1020200066EEA77A77EE677A97ED137A67EE277AEE
:10203000C7ED0C7A7B6893ED027A7B68D3ED077A63
:1020400027EE277A7B68D3ED087A27EE277A7B681C
:10205000D3ED036A7B68D3ED067A66EEA76A7B68E8
:10206000D3ED087A66EEA77A37EE677A7B68D3ED10
:10207000036A7B68D3ED047A66EEA76A7B68D3EDCA
:102080000A7A66EEA77A37EE277A7B68D3ED006A84
:102090007B68D3ED077A66EEA76A7B68D3ED0A7A90
:1020A00066EEA77A37EE677A7B68D3ED026A7B68C3
:1020B000D3ED047A66EEA76A7B68D3ED0B7A66EE01
:1020C000A77A37EE677A7B68D3ED006A7B68D3ED39
:1020D000067A66EEA76A7B68D3ED0B7A66EEA77A7E
:1020E00077EE277A97ED137A67EE277AC7ED0B7AAA
:1020F0007B6893ED057A7B68D3ED0B7A27EE277A20
:102100007B68D3ED0C7A27EE277A7B68D3ED076ADC
:102110007B68D3ED097A66EEA76A7B68D3ED0C7A0B
:1021200066EEA77A37EE677A7B68D3ED076A7B683D
:10213000D3ED087A66EEA76A7B68D3ED0D7A66EE7A
:10214000A77A37EE277A7B68D3ED046A7B68D3EDF4
:102150000B7A66EEA76A7B68D3ED0D7A66EEA77AF6
:1021600037EE677A7B68D3ED056A7B68D3ED087A32
:1021700066EEA76A7B68D3ED0F7A66EEA77A37EE34
:10218000677A7B68D3ED046A7B68D3ED097A66EEE3
:10219000A76A7B68D3ED0F7A66EEA77A77EE277A87
:1021A00097ED137A67EE277AC7ED0A7A7B6893ED8D
:1021B000037A7B68D3ED097A27EE277A7B68D3ED23
:1021C0000C7A27EE277A7B68D3ED016A7B68D3ED22
:1021D0000B7A66EEA76A7B68D3ED0C7A66EEA77A77
:1021E00037EE677A7B68D3ED036A7B68D3ED087AB4
:1021F00066EEA76A7B68D3ED0D7A66EEA77A37EEB6
:10220000677A7B68D3ED006A7B68D3ED0B7A66EE64
:10221000A76A7B68D3ED0D7A66EEA77A37EE277A48
:102220007B68D3ED016A7B68D3ED087A66EEA76A16
:102230007B68D3ED0F7A66EEA77A37EE277A7B6854
:10224000D3ED006A7B68D3ED097A66EEA76A7B68F6
:10225000D3ED0F7A66EEA77A77EE677A97ED137A69
:1022600067EE277AC7ED097A7B6893ED017A7B6880
:10227000D3ED077A27EE277A7B68D3ED0C7A27EE29
:10228000277A7B68D3ED036A7B68D3ED057A66EE27
:10229000A76A7B68D3ED0C7A66EEA77A37EE677A89
:1022A0007B68D3ED036A7B68D3ED047A66EEA76A98
:1022B0007B68D3ED0D7A66EEA77A37EE277A7B68D6
:1022C000D3ED006A7B68D3ED077A66EEA76A7B6878
:1022D000D3ED0D7A66EEA77A37EE677A7B68D3ED99
:1022E000016A7B68D3ED047A66EEA76A7B68D3ED5A
:1022F0000F7A66EEA77A37EE677A7B68D3ED006ACD
:102300007B68D3ED057A66EEA76A7B68D3ED0F7A1A
:1023100066EEA77A77EE277A97ED137A67EE277A3B
:10232000C7ED087A7B6893ED037A7B68D3ED057A75
:1023300027EE277A7B68D3ED087A27EE277A7B6829
:10234000D3ED016A7B68D3ED077A66EEA76A7B68F6
:10235000D3ED087A66EEA77A37EE677A7B68D3ED1D
:10236000036A7B68D3ED047A66EEA76A7B68D3EDD7
:10237000097A66EEA77A37EE677A7B68D3ED006A52
:102380007B68D3ED077A66EEA76A7B68D3ED097A9E
:1023900066EEA77A37EE277A7B68D3ED016A7B6811
:1023A000D3ED047A66EEA76A7B68D3ED0B7A66EE0E
:1023B000A77A37EE277A7B68D3ED006A7B68D3ED86
:1023C000057A66EEA76A7B68D3ED0B7A66EEA77A8C
:1023D00077EE677A97ED137A67EE277AC7ED077A7B
:1023E0007B6893ED067A7B68D3ED097A27EE277A2E
:1023F0007B68D3ED0C7A27EE277A7B68D3ED056AEC
:102400007B68D3ED0A7A66EEA76A7B68D3ED0C7A17
:1024100066EEA77A37EE677A7B68D3ED066A7B684B
:10242000D3ED087A66EEA76A7B68D3ED0D7A66EE87
:10243000A77A37EE677A7B68D3ED046A7B68D3EDC1
:102440000A7A66EEA76A7B68D3ED0D7A66EEA77A04
:1024500037EE277A7B68D3ED056A7B68D3ED087A7F
:1024600066EEA76A7B68D3ED0E7A66EEA77A37EE42
:10247000277A7B68D3ED046A7B68D3ED097A66EE30
:10248000A76A7B68D3ED0E7A66EEA77A77EE677A55
:1024900097ED137A67EE277AC7ED067A7B6893ED9E
:1024A000017A7B68D3ED0A7A27EE277A7B68D3ED31
:1024B0000C7A27EE277A7B68D3ED026A7B68D3ED2E
:1024C000097A66EEA76A7B68D3ED0C7A66EEA77A86
:1024D00037EE677A7B68D3ED026A7B68D3ED087AC2
:1024E00066EEA76A7B68D3ED0D7A66EEA77A37EEC3
:1024F000277A7B68D3ED006A7B68D3ED0A7A66EEB3
:10250000A76A7B68D3ED0D7A66EEA77A37EE677A15
:102510007B68D3ED016A7B68D3ED087A66EEA76A23
:102520007B68D3ED0E7A66EEA77A37EE677A7B6822
:10253000D3ED006A7B68D3ED097A66EEA76A7B6803
:10254000D3ED0E7A66EEA77A77EE277A97ED137AB7
:1025500067EE277AC7ED057A7B6893ED027A7B6890
:10256000D3ED057A27EE277A7B68D3ED0C7A27EE38
:10257000277A7B68D3ED016A7B68D3ED067A66EE35
:10258000A76A7B68D3ED0C7A66EEA77A37EE677A96
:102590007B68D3ED026A7B68D3ED047A66EEA76AA6
:1025A0007B68D3ED0D7A66EEA77A37EE677A7B68A3
:1025B000D3ED006A7B68D3ED067A66EEA76A7B6886
:1025C000D3ED0D7A66EEA77A37EE277A7B68D3EDE6
:1025D000016A7B68D3ED047A66EEA76A7B68D3ED67
:1025E0000E7A66EEA77A37EE277A7B68D3ED006A1B
:1025F0007B68D3ED057A66EEA76A7B68D3ED0E7A29
:1026000066EEA77A77EE677A97ED137A67EE277A08
:10261000C7ED047A7B6893ED017A7B68D3ED067A87
:1026200027EE277A7B68D3ED087A27EE277A7B6836
:10263000D3ED026A7B68D3ED057A66EEA76A7B6804
:10264000D3ED087A66EEA77A37EE677A7B68D3ED2A
:10265000026A7B68D3ED047A66EEA76A7B68D3EDE5
:10266000097A66EEA77A37EE277A7B68D3ED006A9F
:102670007B68D3ED067A66EEA76A7B68D3ED097AAC
:1026800066EEA77A37EE677A7B68D3ED016A7B68DE
:10269000D3ED047A66EEA76A7B68D3ED0A7A66EE1C
:1026A000A77A37EE677A7B68D3ED006A7B68D3ED53
:1026B000057A66EEA76A7B68D3ED0A7A66EEA77A9A
:1026C00077EE277A97ED137A67EE277AC7ED037ACC
:1026D0007B68BA6C1A607B687A6C5A607B683A6C6B
:1026E0009A607B68FA6BDA607B68BA6B1A617B6808
:1026F0007A6B5A617B683A6B9A617B68FA6ADA6135
:102700007B68BA6A1A627B687A6A5A627B683A6A3C
:102710009A627B68FA69DA627B68BA691A637B68D5
:102720007A695A637B683A699A637B68FA68DA6304
:1027300000BF5437BD465DF8047B704790B593B039
:1027400000AF7862B0EE406AF0EE606AB0EE417AB7
:10275000F0EE617A87ED056AC7ED066A87ED077AC4
:10276000C7ED087A07F12803DFED5C1A9FED5B1ACD
:10277000DFED5A0A9FED590A1846FEF78CFD7B6A79
:1027800093ED007AD7ED057A27EE277A7B6AD3EDB1
:10279000016AD7ED067A66EEA77A37EE277A7B6A6A
:1027A000D3ED026AD7ED077A66EEA77A37EE277A7D
:1027B0007B6AD3ED036AD7ED087A66EEA77A77EEE7
:1027C000277AC7ED0A7A7B6A93ED047AD7ED057A0A
:1027D00027EE277A7B6AD3ED056AD7ED067A66EE97
:1027E000A77A37EE277A7B6AD3ED066AD7ED077AA8
:1027F00066EEA77A37EE277A7B6AD3ED076AD7EDC4
:10280000087A66EEA77A77EE277AC7ED0B7A7B6AAD
:1028100093ED087AD7ED057A27EE277A7B6AD3ED18
:10282000096AD7ED067A66EEA77A37EE277A7B6AD1
:10283000D3ED0A6AD7ED077A66EEA77A37EE277AE4
:102840007B6AD3ED0B6AD7ED087A66EEA77A77EE4E
:10285000277AC7ED0C7A7B6A93ED0C7AD7ED057A6F
:1028600027EE277A7B6AD3ED0D6AD7ED067A66EEFE
:10287000A77A37EE277A7B6AD3ED0E6AD7ED077A0F
:1028800066EEA77A37EE277A7B6AD3ED0F6AD7ED2B
:10289000087A66EEA77A77EE277AC7ED0D7A07F108
:1028A000380407F128030FCB84E80F00B86BF96BED
:1028B0003A6C7B6C06EE100A06EE901A07EE102AB0
:1028C00007EE903AB0EE460AF0EE660AB0EE471A0E
:1028D000F0EE671A4C37BD4690BD00BF0000000007
:1028E000B0B52DED028BC0B000AF78607B681833B7
:1028F0001846FEF713FC7B6824331846FEF70EFCDF
:102900007B6834331846FEF709FC7B684033184671
:10291000FEF704FC7B684C331846FEF7FFFB7B6830
:1029200058331846FEF7FAFB7B6864331846FEF707
:10293000F5FB7B6870331846FEF7F0FB7B687C3351
:102940001846FEF7EBFB7B6888331846FEF7E6FB7C
:102950007B6894331846FEF7E1FB7B68A03318468A
:10296000FEF7DCFB7B68AC331846FEF7D7FB7B68D1
:10297000B8331846FEF7D2FB7B68C4331846FEF71F
:10298000CDFB7B68D0331846FEF7C8FB7B68DC3391
:102990001846FEF7C3FB7B68E8331846FEF7BEFB1C
:1029A0007B68F4331846FEF7B9FB7B6803F5807348
:1029B0001846FEF7B3FBDF4BC7F8FC307B68DE4AF6
:1029C0001A607B68DD4A5A607B68DD4A9A607B68E2
:1029D0004FF00002DA607B68DA4A1A617B684FF0D8
:1029E00000025A6107F10C039FEDE31ADFEDE20AE2
:1029F0009FEDE10A1846FEF7A8FB7B68183307F144
:102A00000C0207CA83E8070007F118039FEDCE1AEE
:102A1000DFEDD90A9FEDD80A1846FEF796FB7B68D2
:102A2000243307F1180207CA83E807007B6893ED97
:102A3000007A7B68D3ED017A37EE277A7B68D3ED95
:102A4000037A77EE277A7B68C3ED0C7A07F12403CB
:102A50009FEDBE1ADFEDC80A9FEDC70A1846FEF7C4
:102A600074FB7B68343307F1240207CA83E807004C
:102A700007F130039FEDBF1ADFEDBF0A9FEDBE0ADD
:102A80001846FEF762FB7B68403307F1300207CA45
:102A900083E8070007F13C039FEDAD1ADFEDB60AAE
:102AA0009FEDB50A1846FEF750FB7B684C3307F1E3
:102AB0003C0207CA83E8070007F148039FEDA51A07
:102AC000DFEDAD0A9FEDAC0A1846FEF73EFB7B68D2
:102AD000583307F1480207CA83E8070007F1540397
:102AE0009FED9D1ADFEDA40A9FEDA30A1846FEF79D
:102AF0002CFB7B68643307F1540207CA83E80700A4
:102B000007F160039FED951ADFED9B0A9FED9A0A8E
:102B10001846FEF71AFB7B68703307F1600207CA9C
:102B200083E8070007F16C039FED931ADFED870A36
:102B30009FED8B0A1846FEF708FB7B687C3307F194
:102B40006C0207CA83E8070007F178039FED8A1A31
:102B5000DFED890A9FED830A1846FEF7F6FA7B68D7
:102B6000883307F1780207CA83E8070007F1840376
:102B70009FED811ADFED7C0A9FED790A1846FEF77A
:102B8000E4FA7B68943307F1840207CA83E80700FC
:102B900007F190039FED781ADFED6C0A9FED730A41
:102BA0001846FEF7D2FA7B68A03307F1900207CAF5
:102BB00083E8070007F19C039FED6F1ADFED6E0AB3
:102BC0009FED6B0A1846FEF7C0FA7B68AC3307F13D
:102BD0009C0207CA83E8070007F1A8039FED661A65
:102BE000DFED610A9FED610A1846FEF7AEFA7B68D9
:102BF000B83307F1A80207CA83E807007B6803F12E
:102C00007C057B6893ED0F7AD7ED3F7A67EE277AE4
:102C1000DFED586A87EEA67AB0EE470AFEF74EFA65
:102C2000B0EE407A7B68D3ED0C7A27EE278A7B687A
:102C300093ED0F7AD7ED3F7A67EE277ADFED4D6A95
:102C400087EEA67AB0EE470AFEF748FAB0EE407A71
:102C50007B68D3ED0C7A67EE277A07F1B4039FED1A
:102C6000461AF0EE670AB0EE480A1846FEF76DFA0B
:102C70007C6807F1B40319462846FEF781FAF0EEA6
:102C8000406AB0EE607AF0EE417AC4ED316A84EDCC
:102C9000327AC4ED337A7B6803F188057B6893ED63
:102CA000127AD7ED3F7A67EE277ADFED326A87EE48
:102CB000A67AB0EE470AFEF701FAB0EE407A7B68DA
:102CC000D3ED0C7A27EE278A7B6893ED127AD7ED45
:102CD0003F7A67EE277ADFED276A87EEA67AB0EEB5
:102CE000470AFEF7FBF9B0EE407A7B68D3ED0C7A29
:102CF00067EE277A07F1C0039FED1F1AF0EE670A0F
:102D0000B0EE480A1846FEF720FA7C6807F1C003C7
:102D100019462846FEF734FAF0EE406AB0EE607AC3
:102D2000F0EE417AC4ED346A84ED357AC4ED367A3A
:102D30007B6823E0DB0F4940000034420000604222
:102D4000000090410000B44200008C420000F042BC
:102D500000007043000070420000B443000096433E
:102D6000000088C200000CC30000F0C200008842CE
:102D700000000C43000034430000000003F1940500
:102D80007B6893ED157AD7ED3F7A67EE277A5FED92
:102D9000076A87EEA67AB0EE470AFEF78FF9B0EE23
:102DA000407A7B68D3ED0C7A27EE278A7B6893ED17
:102DB000157AD7ED3F7A67EE277A5FED126A87EED4
:102DC000A67AB0EE470AFEF789F9B0EE407A7B6842
:102DD000D3ED0C7A67EE277A07F1CC031FED1A1AB0
:102DE000F0EE670AB0EE480A1846FEF7AEF97C68C6
:102DF00007F1CC0319462846FEF7C2F9F0EE406A07
:102E0000B0EE607AF0EE417AC4ED376A84ED387A3C
:102E1000C4ED397A7B6803F1A0057B6893ED187ADD
:102E2000D7ED3F7A67EE277A5FED2E6A87EEA67AB6
:102E3000B0EE470AFEF742F9B0EE407A7B68D3ED78
:102E40000C7A27EE278A7B6893ED187AD7ED3F7AC4
:102E500067EE277A5FED396A87EEA67AB0EE470A09
:102E6000FEF73CF9B0EE407A7B68D3ED0C7A67EE62
:102E7000277A07F1D8031FED401AF0EE670AB0EE8B
:102E8000480A1846FEF761F97C6807F1D80319462D
:102E90002846FEF775F9F0EE406AB0EE607AF0EE83
:102EA000417AC4ED3A6A84ED3B7AC4ED3C7A7B68A2
:102EB00003F1AC057B6893ED1B7AD7ED3F7A67EEA3
:102EC000277A5FED546A87EEA67AB0EE470AFEF7DE
:102ED000F5F8B0EE407A7B68D3ED0C7A27EE278ABE
:102EE0007B6893ED1B7AD7ED3F7A67EE277A5FED2B
:102EF0005F6A87EEA67AB0EE470AFEF7EFF8B0EE0B
:102F0000407A7B68D3ED0C7A67EE277A07F1E40309
:102F10001FED671AF0EE670AB0EE480A1846FEF792
:102F200014F97C6807F1E40319462846FEF728F9EE
:102F3000F0EE406AB0EE607AF0EE417AC4ED3D6AA0
:102F400084ED3E7AC4ED3F7A7B6803F1B8057B6877
:102F500093ED1E7AD7ED3F7A67EE277A5FED7B6AB5
:102F600087EEA67AB0EE470AFEF7A8F8B0EE407AF0
:102F70007B68D3ED0C7A27EE278A7B6893ED1E7A67
:102F8000D7ED3F7A67EE277A5FED866A87EEA67AFD
:102F9000B0EE470AFEF7A2F8B0EE407A7B68D3EDB8
:102FA0000C7A67EE277A07F1F0031FED8D1AF0EE29
:102FB000670AB0EE480A1846FEF7C7F87C6807F1C2
:102FC000F00319462846FEF7DBF8F0EE406AB0EE53
:102FD000607AF0EE417AC4ED406A84ED417AC4ED46
:102FE000427A7B68184607F58077BD46BDEC028BB8
:102FF000B0BD00BF80B483B000AF78607B684FF095
:103000000002DA647B6800229A647B6818460C37F9
:10301000BD465DF8047B704784B080B582B000AFD8
:10302000786007F1140080E80E0087ED000A7B68E5
:103030004FF00002DA647B68184607F11403482257
:10304000194624F07DFB7B68FA6D9A647B683A68C8
:10305000DA647A687B689B6C1946104607F0FCFBC3
:103060007B6818460837BD46BDE8804004B070470D
:1030700080B485B000AF786087ED000AD7ED007AA4
:103080009FED1D7A37EE877A7B68D3ED137A77EE62
:10309000277AB2EE067A67EE877A9FED187A77EE96
:1030A000877AFDEEE77A17EE903AFB607B689B6CBF
:1030B000002B04D17B681B68FA685A6315E07B68B3
:1030C0009B6C042B04D17B681B68FA689A630CE044
:1030D0007B689B6C082B04D17B681B68FA68DA63F9
:1030E00003E07B681B68FA681A6400BF1437BD46AA
:1030F0005DF8047B704700BF0000B4420000FA4353
:10310000F0B5ADF20C6D10AF07F10C03186007F1CC
:10311000080319603B1D83ED000A07F10C031B68CF
:103120001846FDF7FBFF07F10C031B680C3318462C
:10313000FDF7F4FF07F10C031B6818331846FDF781
:10314000EDFF07F10C031B6824331846FDF7E6FF7B
:1031500007F10C031B6830331846FFF74BFF07F1EC
:103160000C031B6880331846FFF744FF07F10C037C
:103170001B68D0331846FFF73DFF07F10C031B68AF
:1031800003F59E7318460FF0A8FD07F10C031B68AA
:103190004FF00002C3F8202107F10C031B684FF029
:1031A0000002C3F8242107F10C031B684FF0000252
:1031B000C3F8282107F10C031B684FF00002C3F885
:1031C0002C2107F10C031B684FF00002C3F83021DB
:1031D00007F10C031B684FF00002C3F8342107F11C
:1031E0000C031B684FF00002C3F8382107F10C03F1
:1031F0001B6803F59E7207F10803196810460FF06B
:1032000079FD07F10C031B6803F59E73934918467B
:1032100004F0C9FD0346002B00F0898007F10C0380
:103220001B688F4A2433343207CA83E8070007F14A
:103230000C031A688A4B1446C43393E8070084E8E9
:10324000070007F10C031B68854A18337C3207CA54
:1032500083E80700834E07F1140C00230F936D469B
:1032600006F10C040FCC0FC50FCC0FC50FCC0FC54A
:1032700094E8070085E8070096E80E009FED7A0ABB
:103280006046FFF7C9FE07F10C031B6807F1140243
:10329000303311465022184624F052FA714E07F18D
:1032A000640C08230F936D4606F10C040FCC0FC578
:1032B0000FCC0FC50FCC0FC594E8070085E80700B9
:1032C00096E80E009FED680A6046FFF7A5FE07F13D
:1032D0000C031B6807F16402803311465022184624
:1032E00024F02EFA5F4E07F1B40C04230F936D46C1
:1032F00006F10C040FCC0FC50FCC0FC50FCC0FC5BA
:1033000094E8070085E8070096E80E009FED560A4E
:103310006046FFF781FE07F10C031B6807F1B4025A
:10332000D03311465022184624F00AFA0AE307F176
:103330000C031B6803F59E734C49184604F033FDDB
:103340000346002B00F0988007F10C031B68444AE9
:103350002433403207CA83E8070007F10C031A68D8
:103360003F4B1446D03393E8070084E8070007F189
:103370000C031B683A4A1833883207CA83E80700EF
:103380003B4E07F5827C04230F936D4606F10C0437
:103390000FCC0FC50FCC0FC50FCC0FC594E807009D
:1033A00085E8070096E80E009FED2F0A6046FFF7BC
:1033B00033FE07F10C031B6807F5827230331146A8
:1033C0005022184624F0BCF9294E07F5AA7C0023A8
:1033D0000F936D4606F10C040FCC0FC50FCC0FC533
:1033E0000FCC0FC594E8070085E8070096E80E00AB
:1033F0009FED1D0A6046FFF70FFE07F10C031B68E7
:1034000007F5AA72803311465022184624F098F925
:10341000184E07F5D27C04230F936D4606F10C0479
:103420000FCC0FC50FCC0FC50FCC0FC594E807000C
:1034300085E8070096E80E009FED0B0A6046FFF74F
:10344000EBFD07F10C031B6807F5D272D033114670
:103450005022184624F074F974E200BF20F10208EB
:1034600090030020C4070020000000002CF1020897
:103470005C0600203407002007F10C031B6803F5ED
:103480009E739349184604F08EFC0346002B00F00F
:10349000898007F10C031B688E4A24334C3207CA1B
:1034A00083E8070007F10C031A688A4B1446DC33E3
:1034B00093E8070084E8070007F10C031B68854ABE
:1034C0001833943207CA83E80700834E07F5FA7C65
:1034D0000C230F936D4606F10C040FCC0FC50FCCD7
:1034E0000FC50FCC0FC594E8070085E8070096E8E4
:1034F0000E009FED7A0A6046FFF78EFD07F10C0380
:103500001B6807F5FA72303311465022184624F032
:1035100017F9714E07F5117C08230F936D4606F1DC
:103520000C040FCC0FC50FCC0FC50FCC0FC594E802
:10353000070085E8070096E80E009FED680A6046E0
:10354000FFF76AFD07F10C031B6807F51172803362
:1035500011465022184624F0F3F8614E07F5257CF9
:1035600000230F936D4606F10C040FCC0FC50FCC52
:103570000FC50FCC0FC594E8070085E8070096E853
:103580000E009FED560A6046FFF746FD07F10C035B
:103590001B6807F52572D03311465022184624F0D7
:1035A000CFF8CFE107F10C031B6803F59E734D497B
:1035B000184604F0F8FB0346002B00F0998007F151
:1035C0000C031B68434A2433583207CA83E80700B8
:1035D00007F10C031A683F4B1446E83393E80700E1
:1035E00084E8070007F10C031B683A4A1833A0323D
:1035F00007CA83E807003C4E07F5397C0C230F937C
:103600006D4606F10C040FCC0FC50FCC0FC50FCCC7
:103610000FC594E8070085E8070096E80E009FEDC7
:103620002F0A6046FFF7F8FC07F10C031B6807F54B
:103630003972303311465022184624F081F82B4E4F
:1036400007F54D7C00230F936D4606F10C040FCC5B
:103650000FC50FCC0FC50FCC0FC594E8070085E848
:10366000070096E80E009FED1D0A6046FFF7D4FCA8
:1036700007F10C031B6807F54D7280331146502289
:10368000184624F05DF8194E07F5617C04230F936A
:103690006D4606F10C040FCC0FC50FCC0FC50FCC37
:1036A0000FC594E8070085E8070096E80E009FED37
:1036B0000B0A6046FFF7B0FC07F10C031B6807F527
:1036C0006172D03311465022184624F039F839E19E
:1036D00038F10208900300205C0600200000000082
:1036E0000C08002044F10208A4060020EC0600208B
:1036F00007F10C031B6803F59E73C349184604F0D9
:1037000052FB0346002B00F0898007F10C031B6875
:10371000BE4A2433643207CA83E8070007F10C036A
:103720001A68BA4B1446F43393E8070084E807009C
:1037300007F10C031B68B54A1833AC3207CA83E89B
:103740000700B34E07F5757C08230F936D4606F10D
:103750000C040FCC0FC50FCC0FC50FCC0FC594E8D0
:10376000070085E8070096E80E009FEDAA0A60466C
:10377000FFF752FC07F10C031B6807F57572303335
:1037800011465022184623F0DBFFA34E07F2244CCB
:1037900000230F936D4606F10C040FCC0FC50FCC20
:1037A0000FC50FCC0FC594E8070085E8070096E821
:1037B0000E009FED980A6046FFF72EFC07F10C0300
:1037C0001B6807F22442803311465022184623F02A
:1037D000B7FF914E07F2744C04230F936D4606F128
:1037E0000C040FCC0FC50FCC0FC50FCC0FC594E840
:1037F000070085E8070096E80E009FED860A604600
:10380000FFF70AFC07F10C031B6807F27442D03380
:1038100011465022184623F093FF93E007F10C0362
:103820001B6803F59E737D49184604F0BCFA0346F5
:10383000002B00F0878007F10C031B68734A2433C8
:10384000703207CA83E8070007F10C031A686F4B50
:10385000144603F5807393E8070084E8070007F136
:103860000C031B68694A1833B83207CA83E807009B
:103870006B4E07F2C44C00230F936D4606F10C0407
:103880000FCC0FC50FCC0FC50FCC0FC594E80700A8
:1038900085E8070096E80E009FED5E0A6046FFF798
:1038A000BBFB07F10C031B6807F2C442303311461F
:1038B0005022184623F044FF594E07F2145C0823A7
:1038C0000F936D4606F10C040FCC0FC50FCC0FC53E
:1038D0000FCC0FC594E8070085E8070096E80E00B6
:1038E0009FED4C0A6046FFF797FB07F10C031B683E
:1038F000803307F214515022184623F021FF444E22
:1039000007F2645C04230F936D4606F10C040FCCA0
:103910000FC50FCC0FC50FCC0FC594E8070085E885
:10392000070096E80E009FED3B0A6046FFF774FB28
:1039300007F10C031B68D03307F26451502218467C
:1039400023F0FEFE07F10C031B6830339FED310AB4
:103950001846FFF78DFB07F10C031B6880339FEDC2
:103960002D0A1846FFF784FB07F10C031B68D033C0
:103970009FED280A1846FFF77BFB4FF0000307F284
:10398000C45213604FF0000307F5B862136007F1EB
:103990000C031B68D3ED007AFDEEE77A17EE903A40
:1039A000002B09DD3B1DD3ED007AF1EE677A07F2BB
:1039B000C453C3ED007A04E03B1D1B6807F2C452F8
:1039C000136007F10C031B68D3ED017AFDEEE77A73
:1039D00017EE903A002B25DA07F2C45393ED007AE4
:1039E000F0EE006AC7EE267A07F2C453C3ED007A00
:1039F0003B1D93ED007AF0EE006AC7EE267A07F5DC
:103A0000B863C3ED007A31E050F102089003002062
:103A10007C07002000000000A40600205CF10208E2
:103A20003407002007F10C031B68D3ED017AFDEE8B
:103A3000E77A17EE903A002B18DD07F2C45393EDA6
:103A4000007AF0EE006AC7EE267A07F2C453C3ED9F
:103A5000007A3B1D93ED007AF0EE006AC7EE267AFD
:103A6000F1EE677A07F5B863C3ED007A07F10C034E
:103A70001B6893ED007A07F2C453D3ED007A77EE1A
:103A8000276A07F10C031B6893ED017A07F5B86309
:103A9000D3ED007A77EE277A07F10C031B6893EDDC
:103AA000027A07F2B453B0EE471AF0EE670AB0EEAE
:103AB000660A1846FDF749FB07F10C031B681C4614
:103AC00007F2B45393E8070084E8070007F10C03FA
:103AD000186800F08FF907F10C03186800F008F877
:103AE00007F10C031B68184607F2CC57BD46F0BD22
:103AF0002DE9B04F2DED028B8CB000AF78607B6864
:103B0000D3F82031FB627B68D3F82431BB627B6839
:103B1000D3F828317B6297ED0B0AFDF7CFFA10EE50
:103B2000103A1846FCF71AFD04460D46B04B93EDCB
:103B3000008AAF4BD3ED038A97ED0A7AD7ED097A65
:103B400077EE277AB0EE670AFDF7B8FAF0EE407A22
:103B500068EEA77A78EE277A17EE900AFCF7FEFC5B
:103B600080468946A24B1B691846FCF7F7FC824643
:103B70008B4697ED0A7AD7ED097A77EE277AB0EE81
:103B8000670AFDF7ABFA10EE103A1846FCF7E6FCB0
:103B900002460B4650465946FCF738FD02460B4696
:103BA00040464946FCF77AFB02460B46904699464A
:103BB0008F4B93ED018A97ED0A0AFDF77FFAF0EE3D
:103BC000407A68EE277A17EE900AFCF7C7FC0246A7
:103BD0000B4640464946FCF763FB02460B469046BF
:103BE0009946834B93ED028A97ED0A0AFDF776FA20
:103BF000F0EE407A68EE277A17EE900AFCF7AEFCFA
:103C000002460B4640464946FCF748FB02460B4637
:103C100020462946FCF7FAFC02460B461046194698
:103C2000FCF7ECFF03463B6297ED0B0AFDF756FAF3
:103C300010EE103A1846FCF791FC04460D466C4B0A
:103C400093ED008A6A4BD3ED038A97ED0A7AD7ED9C
:103C5000097A77EE277AB0EE670AFDF72FFAF0EED1
:103C6000407A68EEA77A78EE277A17EE900AFCF78A
:103C700075FC804689465E4B1B691846FCF76EFC56
:103C800082468B4697ED0A7AD7ED097A77EE277A46
:103C9000B0EE670AFDF722FA10EE103A1846FCF76C
:103CA0005DFC02460B4650465946FCF7AFFC024607
:103CB0000B4640464946FCF7F1FA02460B46904651
:103CC00099464B4B93ED018A97ED0A0AFDF7F6F9F9
:103CD000F0EE407A68EE277A17EE900AFCF73EFC89
:103CE00002460B4640464946FCF7DAFA02460B46C6
:103CF000904699463E4B93ED028A97ED0A0AFDF7EE
:103D0000EDF9F0EE407A68EE277A17EE900AFCF7AC
:103D100025FC02460B4640464946FCF7BFFA0246E0
:103D20000B4620462946FCF771FC02460B4610461E
:103D30001946FCF763FF0346FB612D4BD3ED047A74
:103D4000B1EE678A97ED0A7AD7ED097A77EE277A8E
:103D5000B0EE670AFDF7B2F9F0EE407A28EE278A56
:103D6000234BD3ED038A97ED0A7AD7ED097A77EEE4
:103D7000277AB0EE670AFDF7B1F9F0EE407A68EE07
:103D8000A77A38EE678A1A4BD3ED028A97ED0A0AB2
:103D9000FDF794F9F0EE407A68EEA77A38EE678A7C
:103DA000134BD3ED018A97ED0A0AFDF797F9F0EE70
:103DB000407A68EEA77A78EE677AC7ED067A07F15F
:103DC0000C0397ED061AD7ED070A97ED080A184677
:103DD000FDF7BBF97B680C3307F10C0207CA83E8D7
:103DE000070000BF3037BD46BDEC028BBDE8B08F89
:103DF0009003002080B52DED048BB2B000AF786049
:103E000007F17C031846FDF765FA7B6893ED097AA4
:103E1000E74BD3ED067A77EE276A7B6893ED0A7A53
:103E2000E34BD3ED077A37EE276A7B6893ED0B7A85
:103E3000DF4BD3ED087A77EE277A07F18C03B0EEEB
:103E4000671AF0EE460AB0EE660A1846FDF77DF9ED
:103E5000D7ED236A97ED247AD7ED257A07F17C0315
:103E6000B0EE660AF0EE470AB0EE671A1846FDF7A4
:103E70004DFA07F13C031846FDF724FB97ED1F6A46
:103E8000D7ED206A97ED217AD7ED227A07F13C032E
:103E9000B0EE460AF0EE660AB0EE471AF0EE671A88
:103EA0001846FDF75AFB786800F062FBB0EE406AF6
:103EB000F0EE606AB0EE417AF0EE617A87ED0B6A5F
:103EC000C7ED0C6A87ED0D7AC7ED0E7AFB6ABB640D
:103ED0003B6BBB657B6BBB6607F13C031846FDF78C
:103EE0002BFC7B68D3ED007A7B6893ED017A7B68CD
:103EF000D3ED026A07F19803F7EE001AB0EE661AE6
:103F0000F0EE470AB0EE670A1846FDF7C4F997EDE0
:103F1000266AD7ED276A97ED287AD7ED297A07F137
:103F20003C03B0EE460AF0EE660AB0EE471AF0EE39
:103F3000671A1846FEF702FCB0EE406AF0EE606ABF
:103F4000B0EE417AF0EE617A87ED076AC7ED086A54
:103F500087ED097AC7ED0A7AD7ED087A97ED077AE7
:103F6000F0EE470AB0EE670AFDF784F8F0EE407A0B
:103F70007B68C3ED487A97ED078A7B68D3ED487A72
:103F8000B0EE670AFDF79AF8F0EE407A28EE277A4D
:103F9000874BD3ED007A37EE678AD7ED088A7B68C6
:103FA000D3ED487AB0EE670AFDF798F8F0EE407A64
:103FB00068EEA77A78EE277AC7ED307AD7ED307AB7
:103FC00037EEA77A7A4BD3ED027A27EE277AD7ED30
:103FD000097A77EEA76A764BD3ED017A66EEA77A77
:103FE00077EE277AC7ED2F7AD7ED307AB8EE007AE0
:103FF00027EE877A6E4BD3ED017A27EE277AD7ED3D
:10400000097A77EEA76A6A4BD3ED027A66EEA77A51
:1040100077EE277AC7ED2E7A654B93ED047A644BE1
:10402000D3ED047A27EE277A614BD3ED036A604B18
:10403000D3ED037A66EEA77A37EE277AD7ED307A9A
:1040400067EEA77A37EE677AD7ED096AD7ED097A76
:1040500066EEA77A37EE677A554BD3ED026A544B7A
:10406000D3ED027A66EEA77A37EE677A504BD3ED3E
:10407000016A4F4BD3ED017A66EEA77A77EE677A45
:10408000C7ED2D7AD7ED2E0A97ED2F0AFCF7F2FF38
:10409000B0EE408AD7ED2F7A27EEA77AD7ED2E7AA9
:1040A00067EEA77A37EE277AD7ED2D7A67EEA77AF3
:1040B00077EE677AB0EE670AFDF720F8F0EE407A07
:1040C000D7ED2D0AB0EE670AFCF7D4FFF0EE407A88
:1040D00078EE277A7B68C3ED497A354BDB68C7F801
:1040E000BC30334B1B69C7F8B830314B93ED008AB5
:1040F0007B68D3ED497AB0EE670AFCF7EFFFF0EE8C
:10410000407A28EE278AD7ED098A7B68D3ED497A71
:10411000B0EE670AFCF7D2FFF0EE407A68EEA77ABD
:1041200038EE678AD7ED078A7B68D3ED487AB0EE20
:10413000670AFCF7C3FFF0EE407A68EEA78A7B6857
:10414000D3ED497AB0EE670AFCF7C8FFF0EE407A8B
:1041500068EEA77A38EE678AD7ED088A7B68D3EDD8
:10416000487AB0EE670AFCF7B9FFF0EE407A68EEE5
:10417000A78A7B68D3ED497AB0EE670AFCF7AEFFF9
:10418000F0EE407A68EEA77A38EE677A084BD3ED06
:10419000027A77EE677AC7ED2D7A07F114030022D1
:1041A0001A605A60D7ED2E0A97ED2F0A02E000BF81
:1041B00090030020FCF75EFFB0EE408AD7ED2F7A27
:1041C00027EEA77AD7ED2E7A67EEA77A37EE277A11
:1041D000D7ED2D7A67EEA77A77EE677AB0EE670AA9
:1041E000FCF78CFFF0EE407AD7ED2D0AB0EE670AAF
:1041F000FCF740FFF0EE407A78EE277AC7ED057ABB
:10420000D7ED2E0A97ED2F0AFCF734FFB0EE408A67
:10421000D7ED2F7A27EEA77AD7ED2E7A67EEA77A19
:1042200037EE277AD7ED2D7A67EEA77A77EE677AA1
:10423000B0EE670AFCF762FFF0EE407AD7ED2D0A88
:10424000B0EE670AFCF716FFF0EE407A78EE677A78
:10425000C7ED067A07F10C0300221A605A600023AA
:10426000C7F8C430D7F8C430012B00F367817B68EE
:10427000D3ED487AB0EE670AFCF720FFB0EE409A23
:10428000BA4B93ED008AB94BD3ED038A7B6893ED6B
:10429000497AD7F8C4309B0007F1C8021344B43BF5
:1042A000D3ED007A77EE277AB0EE670AFCF706FFC7
:1042B000F0EE407A68EEA77A38EE278AAB4BD3ED62
:1042C000048A7B6893ED497AD7F8C4309B0007F1E4
:1042D000C8021344B43BD3ED007A77EE277AB0EEF0
:1042E000670AFCF7FBFEF0EE407A68EEA77A38EE3C
:1042F000678A9E4BD3ED018A7B68D3ED497AB0EE95
:10430000670AFCF7DBFEF0EE407A68EEA77A38EE3B
:10431000278A964BD3ED028A7B68D3ED497AB0EEBB
:10432000670AFCF7DBFEF0EE407A68EEA77A78EEDB
:10433000677A69EE277AC7ED2C7A7B68D3ED487AE5
:10434000B0EE670AFCF7CAFEB0EE409A874B93EDD9
:10435000008A864BD3ED038A7B6893ED497AD7F8C0
:10436000C4309B0007F1C8021344B43BD3ED007A7C
:1043700077EE277AB0EE670AFCF7A0FEF0EE407AFF
:1043800068EEA77A38EE278A784BD3ED048A7B68EB
:1043900093ED497AD7F8C4309B0007F1C802134463
:1043A000B43BD3ED007A77EE277AB0EE670AFCF7DC
:1043B00095FEF0EE407A68EEA77A38EE678A6B4B8E
:1043C000D3ED018A7B68D3ED497AB0EE670AFCF73A
:1043D00075FEF0EE407A68EEA77A38EE278A634BD6
:1043E000D3ED028A7B68D3ED497AB0EE670AFCF719
:1043F00075FEF0EE407A68EEA77A78EE677A69EE9D
:10440000277AC7ED2B7A594BD3ED047AB1EE678A40
:104410007B6893ED497AD7F8C4309B0007F1C80256
:104420001344B43BD3ED007A77EE277AB0EE670AF7
:10443000FCF744FEF0EE407A28EE278A4B4BD3ED92
:10444000038A7B6893ED497AD7F8C4309B0007F163
:10445000C8021344B43BD3ED007A77EE277AB0EE6E
:10446000670AFCF73BFEF0EE407A68EEA77A38EE7A
:10447000678A3E4BD3ED028A7B68D3ED497AB0EE72
:10448000670AFCF71BFEF0EE407A68EEA77A38EE7A
:10449000678A364BD3ED018A7B68D3ED497AB0EE5B
:1044A000670AFCF71BFEF0EE407A68EEA77A78EE1A
:1044B000677AC7ED2A7AD7ED077A97ED2C7A37EE2F
:1044C000677AD7ED077AD7ED2C6A76EEE77A27EE92
:1044D000277AD7ED087AD7ED2B6A76EEE76AD7ED23
:1044E000087A97ED2B6A76EE677A66EEA77A37EE52
:1044F000277AD7ED097AD7ED2A6A76EEE76AD7ED03
:10450000097A97ED2A6A76EE677A66EEA77A77EEF1
:10451000277AB0EE670AFCF7F1FDF0EE407AD7F8A3
:10452000C4309B0007F1C8021344BC3BC3ED007AC2
:10453000D7F8C4300133C7F8C43093E697ED037A57
:10454000D7ED047AB4EEE77AF1EE10FA04D87A697E
:104550007B68C3F8282103E0BA697B68C3F8282187
:1045600000BFC837BD46BDEC048B80BD9003002062
:1045700080B5A6B000AF786107F15C031846FCF780
:10458000A9FE4E4BD3ED067A4C4B93ED077A4B4B7D
:10459000D3ED086A07F16C03B0EE661AF0EE470A35
:1045A000B0EE670A1846FCF7D0FDD7ED1B6A97ED11
:1045B0001C7AD7ED1D7A07F15C03B0EE660AF0EEC7
:1045C000470AB0EE671A1846FCF7A0FE07F11C0375
:1045D0001846FCF777FF97ED176AD7ED186A97ED45
:1045E000197AD7ED1A7A07F11C03B0EE460AF0EEFD
:1045F000660AB0EE471AF0EE671A1846FCF7ADFFF0
:104600002E4B5B6ABB622D4B9B6ABB632B4BDB6AF9
:10461000BB647B69D3ED067A7B6993ED077A7B698E
:10462000D3ED086A07F18803F7EE001AB0EE661AB8
:10463000F0EE470AB0EE670A1846FCF72CFE97ED3D
:10464000226AD7ED236A97ED247AD7ED257A07F110
:104650001C03B0EE460AF0EE660AB0EE471AF0EE22
:10466000671A1846FEF76AF8B0EE406AF0EE606A24
:10467000B0EE417AF0EE617A87ED1E6AC7ED1F6AEF
:1046800087ED207AC7ED217AB86FF96FD7F88020CF
:10469000D7F8843006EE100A06EE901A07EE102ABC
:1046A00007EE903AB0EE460AF0EE660AB0EE471A10
:1046B000F0EE671A9837BD4680BD00BF900300201A
:1046C00090B5A9B000AF786087ED000A07F16803E4
:1046D0001846FCF7FFFD7B6893ED097A604BD3ED3C
:1046E000067A77EE276A7B6893ED0A7A5C4BD3ED06
:1046F000077A37EE276A7B6893ED0B7A584BD3ED38
:10470000087A37EE277AD7ED007A77EE277A07F125
:104710007803B0EE671AF0EE460AB0EE660A184665
:10472000FCF713FDD7ED1E6A97ED1F7AD7ED207ABF
:1047300007F16803B0EE660AF0EE470AB0EE671ABA
:104740001846FCF7E3FD07F128031846FCF7BAFE0C
:1047500097ED1A6AD7ED1B6A97ED1C7AD7ED1D7A93
:1047600007F12803B0EE460AF0EE660AB0EE471AEB
:10477000F0EE671A1846FCF7F0FE7868FFF7F8FECF
:10478000B0EE406AF0EE606AB0EE417AF0EE617A27
:1047900087ED066AC7ED076A87ED087AC7ED097AE3
:1047A000BB697B63FB697B643B6A7B657B68D3ED9C
:1047B000037A7B6893ED047A7B68D3ED056A07F191
:1047C0008403F7EE001AB0EE661AF0EE470AB0EE78
:1047D000670A1846FCF75FFD97ED216AD7ED226A5C
:1047E00097ED237AD7ED247A07F12803B0EE460A35
:1047F000F0EE660AB0EE471AF0EE671A1846FDF7BB
:104800009DFFB0EE406AF0EE606AB0EE417AF0EEE5
:10481000617A87ED026AC7ED036A87ED047AC7ED16
:10482000057AD7ED027A97ED037A7B68D3ED026AB9
:1048300007F19403B0EE661AF0EE470AB0EE670A8D
:104840001846FCF782FC7B681C4607F1940393E84A
:10485000070084E8070000BFA437BD4690BD00BF35
:104860009003002090B58BB000AFF86087ED020A8E
:10487000C7ED010A87ED001A504BFB614FF00003B2
:104880007B624FF000033B62D7ED017AF5EE407A90
:10489000F1EE10FA30D04A4B93ED087AD7ED077A53
:1048A00067EE277ADFED476A87EEA67AB0EE470A11
:1048B000FCF714FCF0EE407AF1EE677A97ED017A9E
:1048C00067EE277AC7ED097A3D4B93ED087AD7ED6D
:1048D000077A67EE277ADFED3B6A87EEA67AB0EEBD
:1048E000470AFCF7EBFBB0EE407AD7ED017A67EEB2
:1048F000877AC7ED087A34E0D7ED027AF5EE407A90
:10490000F1EE10FA2DD02E4B93ED087AD7ED077A01
:1049100067EE277ADFED2B6A87EEA67AB0EE470ABC
:10492000FCF7CCFBB0EE407AD7ED027A67EE877ADF
:10493000C7ED097A224B93ED087AD7ED077A67EE37
:10494000277ADFED206A87EEA67AB0EE470AFCF7F9
:10495000C5FBB0EE407AD7ED027A67EE877AC7EDF5
:10496000087AFB6893ED007AD7ED097A77EE276A2B
:10497000FB6893ED017AD7ED087A37EE276AFB687A
:1049800093ED027AD7ED007A77EE277A07F11003DC
:10499000B0EE671AF0EE460AB0EE660A1846FCF76B
:1049A000D4FBFB681C4607F1100393E8070084E87A
:1049B000070000BF2C37BD4690BD00BFD00F494057
:1049C000900300200000344380B582B000AF7860CF
:1049D0000B46FB70FB78062B4CD801A252F823F053
:1049E000FD490008114A0008254A0008394A000814
:1049F0004D4A0008614A0008754A00089FED201AD8
:104A0000F7EE000A9FED1E0A7868FFF72BFF32E0F1
:104A10009FED1B1AFFEE000A9FED190A7868FFF759
:104A200021FF28E09FED171ADFED150A9FED140A0C
:104A30007868FFF717FF1EE09FED131ADFED100AED
:104A40009FED0F0A7868FFF70DFF14E09FED0C1A39
:104A5000DFED0B0ABFEE000A7868FFF703FF0AE0FC
:104A60009FED071ADFED060AB7EE000A7868FFF738
:104A7000F9FE00E000BF00BF0837BD4680BD00BFA3
:104A800000000000CDCC4C3ECDCC4CBE80B58CB0EF
:104A900000AF78604FF00003FB624FF00003BB6291
:104AA0004FF000037B624FF00003BB614FF0000347
:104AB0007B614FF000033B614FF00003FB60C84B8C
:104AC0003B62DFEDC86A97ED087AC6EE877AC7EDDC
:104AD000077A7868FFF78EF97B68D3ED487A97ED0F
:104AE000077A67EE277AC7ED0B7A7B68D3ED497AB0
:104AF000F1EE677A97ED077A67EE277AC7ED0A7AC3
:104B00007B68D3ED4A7A97ED077A67EE277AC7ED8F
:104B1000097A4FF4B47097ED0B0A03F057F953EC90
:104B2000102B10461946FCF769F80346FB624FF458
:104B3000B47097ED0A0A03F049F953EC102B1046B4
:104B40001946FCF75BF80346BB624FF4B47097ED6F
:104B5000090A03F03BF953EC102B10461946FCF7F9
:104B60004DF803467B62D7ED0B7A9FED9F7AF4EE0A
:104B7000C77AF1EE10FA08D5D7ED0B7A9FED9B7A44
:104B800077EE877AC7ED0B7A10E0D7ED0B7A9FEDC1
:104B9000957AF4EEC77AF1EE10FA07DDD7ED0B7ACD
:104BA0009FED927A77EEC77AC7ED0B7AD7ED0A7A46
:104BB0009FED8D7AF4EEC77AF1EE10FA08D5D7EDB5
:104BC0000A7A9FED8A7A77EE877AC7ED0A7A10E043
:104BD000D7ED0A7A9FED837AF4EEC77AF1EE10FAF8
:104BE00007DDD7ED0A7A9FED817A77EEC77AC7EDB8
:104BF0000A7AD7ED0A7A9FED7E7AF4EEC77AF1EE63
:104C000010FA01DD7B4BBB62D7ED097A9FED767A16
:104C1000F4EEC77AF1EE10FA08D5D7ED097A9FEDD8
:104C2000737A77EE877AC7ED097A10E0D7ED097AC3
:104C30009FED6C7AF4EEC77AF1EE10FA07DDD7ED4E
:104C4000097A9FED6A7A77EEC77AC7ED097AD7EDD0
:104C5000097A9FED697AF4EEC77AF1EE10FA01DD78
:104C6000664B7B62D7ED0B7A9FED657AF4EEC77ADF
:104C7000F1EE10FA4DDBD7ED0B7A9FED5C7AF4EE96
:104C8000C77AF1EE10FA44D5D7ED0A7A9FED5C7A37
:104C9000F4EEC77AF1EE10FA3BDBD7ED0A7A9FED1E
:104CA000537AF4EEC77AF1EE10FA32D5D7ED097ADD
:104CB0009FED537AF4EEC77AF1EE10FA29DBD7EDC7
:104CC000097A9FED4A7AF4EEC77AF1EE10FA20D510
:104CD0007B683033D7ED0B7AF1EE677AB0EE670A76
:104CE0001846FEF7C5F97B688033D7ED0A7AF1EEF6
:104CF000677AB0EE670A1846FEF7BAF97B68D033D8
:104D0000D7ED097AF1EE677AB0EE670A1846FEF73A
:104D1000AFF97B68D3ED4B7A97ED0B7A77EE677A34
:104D2000B0EE670AFCF796F9F0EE407AC7ED067A26
:104D30007B68D3ED4C7A97ED0A7A77EE677AB0EE1E
:104D4000670AFCF787F9F0EE407AC7ED057A7B68D1
:104D5000D3ED4D7A97ED097A77EE677AB0EE670A70
:104D6000FCF778F9F0EE407AC7ED047A07F1140207
:104D700007F118031146184603F049F803461B686B
:104D8000FB6007F1100207F10C031146184603F00F
:104D90003EF803461B68FB607B68FA6AC3F82C2167
:104DA0007B68BA6AC3F830217B687A6AC3F8342119
:104DB000D7ED037A9FED137A67EE877ADFED126AFB
:104DC00087EEA67AB0EE470AFCF768F9F0EE407A73
:104DD0007B68C3ED4E7A00BF3037BD4680BD00BF53
:104DE000D00F494000003443000034C30000B443F6
:104DF0000000A0420000A04200000743000007435B
:104E00000000B4C3000048430000704280B582B087
:104E100000AF78607B6803F59E7318460DF064FF61
:104E20007B6818460837BD4680BD000090B5ADB020
:104E300000AF78607C6807F12003184607F0CBF8D4
:104E400007F1200207F108038B4918460EF040FADB
:104E50008A4BD3ED057A07F10803B0EE670A1946CD
:104E60002046FEF74DF907F1080318460DF03CFF08
:104E700007F12003184607F0AFF804F5AA7407F10C
:104E80003C03184607F0A7F807F13C0207F124039A
:104E90007B4918460EF01CFA784BD3ED057A07F1E2
:104EA0002403B0EE670A19462046FEF729F907F1F8
:104EB000240318460DF018FF07F13C03184607F0CD
:104EC0008BF804F5AA7407F15803184607F083F825
:104ED00007F1580207F140036A4918460EF0F8F945
:104EE000664BD3ED057A07F14003B0EE670A194629
:104EF0002046FEF705F907F1400318460DF0F4FED1
:104F000007F15803184607F067F804F5AA7407F18B
:104F10007403184607F05FF807F1740207F15C03A9
:104F2000594918460EF0D4F9544BD3ED057A07F1E0
:104F30005C03B0EE670A19462046FEF7E1F807F178
:104F40005C0318460DF0D0FE07F17403184607F015
:104F500043F804F5AA7407F19003184607F03BF8EC
:104F600007F1900207F17803484918460EF0B0F9AE
:104F7000424BD3ED057A07F17803B0EE670A194684
:104F80002046FEF7BDF807F1780318460DF0ACFE99
:104F900007F19003184607F01FF804F5AA7407F10B
:104FA000AC03184607F017F807F1AC0207F19403B9
:104FB000374918460EF08CF9304BD3ED057A07F1DE
:104FC0009403B0EE670A19462046FEF799F807F1F8
:104FD000940318460DF088FE07F1AC03184606F05E
:104FE000FBFF7B6803F61C031846FCF797F87B6809
:104FF00003F628031846FCF791F87B68002283F833
:10500000F8277B68002283F8F9277B68002283F861
:10501000FA277B680022C3F8FC277B6803F500634E
:105020004FF000021A607B6803F604034FF00002A1
:105030001A607B6803F608034FF000021A607B6871
:1050400003F60C034FF000021A607B6803F501635E
:105050004FF000021A607B6803F614034FF0000261
:105060001A607B6803F618034FF000021A607B6831
:105070001846B437BD4690BD20F1020890030020C9
:105080002CF1020838F1020844F1020850F102083C
:105090005CF1020880B58AB000AFF86087ED020AC3
:1050A0000B46FB71554BFB614FF000037B624FF0E9
:1050B00000033B62FB79012B02D0FB79002B39D135
:1050C000FB79012B05D1D7ED027AF1EE677AC7EDB6
:1050D000027A4B4B93ED087AD7ED077A67EE277A81
:1050E000DFED486A87EEA67AB0EE470AFBF7F6FFD7
:1050F000F0EE407AF1EE677A97ED027A67EE277A62
:10510000C7ED097A3E4B93ED087AD7ED077A67EE43
:10511000277ADFED3C6A87EEA67AB0EE470AFBF706
:10512000CDFFB0EE407AD7ED027A67EE877AC7ED11
:10513000087A3CE0FB79052B02D0FB79042B36D1B1
:10514000FB79042B05D1D7ED027AF1EE677AC7ED32
:10515000027A2B4B93ED087AD7ED077A67EE277A20
:10516000DFED286A87EEA67AB0EE470AFBF7A6FFC6
:10517000B0EE407AD7ED027A67EE877AC7ED097A0A
:105180001F4B93ED087AD7ED077A67EE277ADFEDAC
:105190001D6A87EEA67AB0EE470AFBF79FFFB0EED6
:1051A000407AD7ED027A67EE877AC7ED087A144B1A
:1051B00093ED097AD7ED097A77EE276A104B93EDD4
:1051C0000A7AD7ED087A77EE277A0D4B93ED0B7AB2
:1051D00007F11003B0EE471AF0EE670AB0EE660A68
:1051E0001846FBF7B2FF064B243307F1100207CA3B
:1051F00083E8070000BF2837BD4680BDDB0F49406C
:10520000900300200000344380B588B000AFF86000
:1052100087ED020AC7ED010A87ED001A154B93EDE1
:10522000097AD7ED027A77EE276A124B93ED0A7A64
:10523000D7ED017A37EE276A0E4B93ED0B7AD7ED57
:10524000007A77EE277A07F11403B0EE671AF0EED2
:10525000460AB0EE660A1846FBF777FF054B243383
:1052600007F1140207CA83E8070000BF2037BD46D4
:1052700080BD00BF9003002080B588B000AFF8600B
:1052800087ED020AC7ED010A87ED001A154B93ED71
:10529000067AD7ED027A77EE276A124B93ED077AFA
:1052A000D7ED017A37EE276A0E4B93ED087AD7EDEA
:1052B000007A77EE277A07F11403B0EE671AF0EE62
:1052C000460AB0EE660A1846FBF73FFF054B183357
:1052D00007F1140207CA83E8070000BF2037BD4664
:1052E00080BD00BF9003002080B485B000AFF8609F
:1052F000F0EE406AB0EE607AF0EE417AC7ED006AF7
:1053000087ED017AC7ED027A054B24333A4607CA86
:1053100083E8070000BF1437BD465DF8047B704783
:105320009003002080B485B000AFF860F0EE406AD2
:10533000B0EE607AF0EE417AC7ED006A87ED017A4F
:10534000C7ED027A054B18333A4607CA83E80700CF
:1053500000BF1437BD465DF8047B70479003002002
:1053600080B586B000AFF860B9607A60FB7000234A
:105370007B617A697B689A423ADABB68012B03D079
:10538000BB68022B17D02FE0FB68FA78114618464D
:10539000FFF71AFBFB6803F5AA63FA781146184673
:1053A000FFF712FBFB6803F52A73FA7811461846DB
:1053B000FFF70AFB18E0FB6803F57F73FA781146E4
:1053C0001846FFF701FBFB6803F5AA73FA7811464C
:1053D0001846FFF7F9FAFB6803F2A463FA7811465E
:1053E0001846FFF7F1FA00BF7B6901337B61C0E724
:1053F00000BF1837BD4680BD80B588B000AF78616A
:10540000FA60BB6087ED000B0B46FB740023FB7753
:105410007B69D3F8FC27BB68D90F0B445B109A4219
:1054200006DA02230522F9687869FFF799FF05E09B
:1054300003230522F9687869FFF792FF97F828306F
:10544000012B34D14FF000024FF00003D7E90001E7
:10545000FBF74EFB0346002B0FD09FED271ADFED25
:10546000270A9FED260A7869FFF706FF9FED230ABA
:10547000F968786900F046F819E04FF000024FF043
:105480000003D7E90001FBF733FB0346002B0ED0E6
:105490009FED1B1ADFED190A9FED180A7869FFF7D7
:1054A000EBFE9FED160AF968786900F02BF8FB7C9B
:1054B0001946B7EE000A7869FFF7ECFDFB7C022283
:1054C000F9687869FFF74CFF7B69D3F8FC375A1C01
:1054D0007B69C3F8FC277B69D3F8FC37BA689A422A
:1054E00005D17B690022C3F8FC270123FB77FB7FF2
:1054F00018462037BD4680BDCDCCCCBD0000000095
:10550000CDCCCC3D80B584B000AFF860B96087EDFC
:10551000010ABB68012B03D0BB68022B17D02FE018
:10552000FB6897ED010A1846FFF7CAF8FB6803F518
:10553000AA6397ED010A1846FFF7C2F8FB6803F566
:105540002A7397ED010A1846FFF7BAF818E0FB68CE
:1055500003F57F7397ED010A1846FFF7B1F8FB6872
:1055600003F5AA7397ED010A1846FFF7A9F8FB683F
:1055700003F2A46397ED010A1846FFF7A1F800BFF4
:1055800000BF1037BD4680BD80B58AB000AF7861DE
:10559000396187ED030AC7ED020A7A60474B3B6227
:1055A000DFED476A97ED087AC6EE877AC7ED077A8E
:1055B000002387F8273097ED031ADFED420A9FEDAD
:1055C000410A7869FFF758FE97ED020A3969786950
:1055D000FFF798FF7B6903F5006393ED007A7B6822
:1055E00007EE903AF8EEE77AB4EEE77AF1EE10FAC9
:1055F00006D802230F2239697869FFF7B1FE05E06A
:1056000003230F2239697869FFF7AAFE7B6903F546
:10561000006393ED007A7B685B0007EE903AF8EE4A
:10562000E77AB4EE677AF1EE10FA3ED1012387F8FB
:1056300027307B6903F500634FF000021A603B6975
:10564000012B1AD17B6903F2C47393ED007AD7ED75
:10565000077A67EE277A4FF4B470B0EE670A02F06B
:10566000B5FB53EC102B10461946FBF7C7FA024660
:105670007B6903F604031A6017E07B6993EDF27A05
:10568000D7ED077A67EE277A4FF4B470B0EE670A69
:1056900002F09CFB53EC102B10461946FBF7AEFAB8
:1056A00002467B6903F604031A60082003F0D2F86F
:1056B00097F8273018462837BD4680BDD00F49409F
:1056C000000034430000000080B588B002AFF860ED
:1056D0000846114687ED000B1A460346FB720B463F
:1056E000BB7213467B720023FB75FB6893F8F83797
:1056F000042B00F2878001A252F823F01157000812
:105700002957000859570008A5570008D557000821
:10571000BB7A012B03D0FB6893F8F82700E0012245
:10572000FB6883F8F82770E0F97A7B7A009397EDAD
:10573000000B1E230122F868FFF75EFE0346FB758F
:10574000FB7D012B03D0FB6893F8F82700E00322D0
:10575000FB6883F8F82758E0F97A7B7A009397ED95
:10576000000B3C230122F868FFF746FE0346FB7559
:10577000FB7D012B03D0FB6893F8F82700E00322A0
:10578000FB6883F8F827FB7D012B3DD1BB7A002B0A
:1057900003D0FB6893F8F82700E00422FB6883F845
:1057A000F82731E0F97A7B7A009397ED000B3C23E0
:1057B0000222F868FFF720FE0346FB75FB7D012BF4
:1057C00003D0FB6893F8F82700E00222FB6883F817
:1057D000F8271AE0F97A7B7A009397ED000B1E23E5
:1057E0000222F868FFF708FE0346FB75FB7D012BDC
:1057F00003D0FB6893F8F82700E00022FB6883F8E9
:10580000F82702E000BF00E000BF00BF1837BD4628
:1058100080BD00BF80B584B000AF78600B46FB70E0
:105820000023FB737B6893F8F937042B00F2108197
:1058300001A252F823F000BF4D5800086558000837
:10584000B958000839590008D5590008FB78012BD0
:1058500003D07B6893F8F92700E001227B6883F886
:10586000F927F8E07B6803F50063D3ED007AB7EE23
:10587000007A77EE877A7B6803F50063C3ED007AE0
:105880007B6803F50063D3ED007A0A22F0EE670A25
:10589000B7EE000A01217868FFF776FE0346FB7336
:1058A000FB7B012B03D07B6893F8F92700E00222F1
:1058B0007B6883F8F927CEE07B6803F50063D3EDBE
:1058C000007AB6EE007A77EE877A7B6803F500639C
:1058D000C3ED007A7B6803F6040393ED007A7B68DE
:1058E00003F60403D3ED007AF3EE046A76EEE76A7A
:1058F0007B6803F50063D3ED007A66EEA76AB3EE2A
:10590000046AC6EE867A77EE277A0A22F0EE670AF4
:10591000B6EE000A02217868FFF736FE0346FB73F5
:10592000FB7B012B03D07B6893F8F92700E003226F
:105930007B6883F8F9278EE07B6803F50063D3ED7D
:10594000007AB6EE007A77EE877A7B6803F500631B
:10595000C3ED007A7B6803F6040393ED007A7B685D
:1059600003F60403D3ED007AF3EE046A76EEE76AF9
:105970007B6803F50063D3ED007A66EEA76AB3EEA9
:10598000046AC6EE867A77EE277A0A22F0EE670A74
:10599000B6EE000A01217868FFF7F6FD0346FB73B7
:1059A000FB7B012B03D07B6893F8F92700E00222F0
:1059B0007B6883F8F927FB7B012B4BD1FB78002B0D
:1059C00003D07B6893F8F92700E004227B6883F812
:1059D000F9273FE07B6803F50063D3ED007AB6EE6C
:1059E000007A77EE877A7B6803F50063C3ED007A6F
:1059F0007B6803F6040393ED007A7B6803F60403E7
:105A0000D3ED007AF1EE676A7B6803F50063D3EDAE
:105A1000007A66EEA76AB2EE046AC6EE867A77EE80
:105A2000277A0522F0EE670AB6EE000A02217868AE
:105A3000FFF7AAFD0346FB73FB7B012B03D07B68BA
:105A400093F8F92700E000227B6883F8F92702E049
:105A500000BF00E000BF00BF1037BD4680BD00BFE3
:105A600080B58AB000AF78600B46FB70CD4B7B628F
:105A700097ED097ADFEDCC6AC7EE267AC7ED087A92
:105A80007B6893F8FA37022B00F0C880022B00F3F2
:105A90008481002B02D0012B1CD07EE17B68C34A9D
:105AA00003F61C03243207CA83E807007B68BF4A59
:105AB00003F62803183207CA83E80700FB78012B96
:105AC00003D07B6893F8FA2700E001227B6883F813
:105AD000FA2762E17B6803F60803D3ED007AB7EE9C
